:10085F00758920E4F587759850758DFD758BFDD2E0
:06086F008ED2ACD2AF22D4
:05088A00C2A0D2A12272
:05088F00D2A0C2A1226D
:05089400C2A2D2A32264
:05089900D2A2C2A3225F
:09088100C2A0C2A1C2A2C2A322BE
:10083B0012085F20900312088A209108C2A0C2A15F
:10084B00C2A2C2A3209204C2A2D2A32093E5D2A239
:04085B00C2A380DFD5
:03002300020800D0
:10080000C0E0C0D030982FC298859908E508B43070
:1008100003120881E508B4310312088AE508B432EE
:100820000312088FE508B43303120894E508B434C2
:0B08300003120899D2AFD0D0D0E03204
:030000000208757E
:0C087500787FE4F6D8FD75810802083B8E
:00000001FF
